:020000040000FA
:10000000B80A002089010000690A00006B0A00009C
:1000100000000000000000000000000000000000E0
:10002000000000000000000000000000830A000043
:100030000000000000000000870A0000890A00009C
:10004000D91D0000DD1D0000E11D0000E51D0000C0
:100050000000000000000000970100009701000070
:100060009701000000000000C93E00009701000059
:10007000B74C0000970100003B1C000097010000F6
:10008000C31F00000000000097010000970100005E
:100090000000000097010000970100009701000098
:1000A000313A0000970100009701000000000000B5
:1000B000B73B000097010000970100009701000086
:1000C00000F002F800F034F80CA030C8083824180A
:1000D0002D18A246671EAB4654465D46AC4201D180
:1000E00000F026F87E460F3E0FCCB646012633427E
:1000F00000D0FB1AA246AB46334318475C690000A8
:100100007C6900000023002400250026103A01D35A
:1001100078C1FBD8520700D330C100D50B607047BF
:100120001FB50098019906F048F81FBD10B510BD25
:1001300006F0EFF81146FFF7F3FF02F007F806F0BC
:1001400007F903B4FFF7F2FF03BC06F067F90000FC
:1001500070B505460C46164602E00FCC0FC5103EA2
:10016000102EFAD2082E02D303CC03C5083E042E6B
:1001700007D301CC01C5361F03E021782970641C28
:100180006D1C761EF9D270BD06480047FEE7FEE7FB
:10019000FEE7FEE7FEE7FEE703480449044A054B95
:1001A00070470000C1000000B8020020B80A00201B
:1001B000B8060020B806002070B50122824D540315
:1001C0002146284600F016FE00222146284600F06F
:1001D00011FE70BD10B50268FF231B019A4318C9B8
:1001E0000968234311430B43036010BD00210160E4
:1001F00081604160704710B54268D30A14C9DB02C0
:1002000022430C681C432243426082686F4B1A40B1
:100210004B6889680B431343836010BD0021016064
:1002200041608160C160016170470029016802D0AE
:100230000122114301E0490849000160704730B5CF
:10024000046807252D02AC43046004680C43046075
:10025000816801242404A143816081681143816085
:100260008168FF2212029143816081681943816095
:1002700030BD0168022211430160704701460968E0
:100280000020890700D50120704701229202002931
:10029000416801D0114300E0914341607047002A5A
:1002A000826801D00A4300E08A43826070470122DD
:1002B000D2030029016801D0114300E0914301609D
:1002C0007047012292020029416801D0914300E069
:1002D000114341607047C06A80B2704700290ED058
:1002E000CA1FF93A09D0CA1FFF3AFA3A09D00322C5
:1002F0001202914207D18069704700697047C06857
:1003000070474069704701229202914201D1C06951
:10031000704705221202914201D1006A7047032200
:100320005202914203D007221202914201D1406A47
:1003300070470020704741630020704781630020B0
:100340007047002A426801D00A4300E08A434260B5
:100350000020704742681F235B019A4352095201F3
:100360000A4342607047002A426C01D00A4300E011
:100370008A43426470470122D2020029416801D0B9
:10038000114300E09143416070470122D2030029EC
:10039000416801D0114300E0914341607047006B18
:1003A00070470246D26C00200A4200D001207047FC
:1003B0000246126D00200A4200D001207047826C74
:1003C0000A4382647047000000000240FF00FEFF05
:1003D00010B5026810231A400B684C681B0289682C
:1003E0006401234311430B43036010BD1022002915
:1003F000016801D0114300E0914301607047026839
:1004000060239A43026002680A43026070474160B9
:1004100070470121C16070478B78002B036A01D0BF
:10042000134300E093430362CB78002B436A01D06F
:10043000134300E0934343620B79002B836A01D09E
:10044000134300E0934383624B78002BC36901D0D0
:10045000134300E09343C36109780029016901D087
:10046000114300E091430161704700008A49022076
:100470000968490700D50120704708B50220694680
:100480000870FFF7F3FF6946087008780128F8D074
:10049000087808BDF0B50746420AFFF7EEFF7E492F
:1004A00001257E4B7E4C402ACB60CC6006D94E693C
:1004B000403A520895402E434E6104E00E695208BE
:1004C00095402E430E61022809D1CB60CC600868AC
:1004D00002221043086000203860FFF7CEFFF0BD15
:1004E00030B5FFF7CAFF6C4A6C4CD4606C4DD560D8
:1004F0000021C9431161D460D560516102280BD13C
:10050000D460D56003201060FFF7B7FFD460D560DA
:100510001168090A0902116030BDF0B50E460746A0
:10052000FFF7ABFF5C4A5D4CD4605D4DD56011694F
:10053000012319431161022813D1D460D5601068DA
:10054000000A00021060D460D56010681843106083
:100550003E60FFF792FFD460D5601168090A090276
:100560001160F0BDF0B50E460746FFF786FF4A4A18
:100570004A4CD4604A4DD560116901231943116179
:10058000022813D1D460D5601068000A0002106000
:10059000D460D5601068184310603E80FFF76DFF8F
:1005A000D460D5601168090A09021160F0BDF0B588
:1005B0000E460746FFF761FF374A384CD460384D86
:1005C000D5601169012319431161022813D1D46048
:1005D000D5601068000A00021060D460D560106811
:1005E000184310603E70FFF748FFD460D560116873
:1005F000090A09021160F0BD70B50C460546FFF707
:100600003CFF264E2449264B402D0BD3022808D10F
:10061000002ACE60CB60486901D0204300E0A043AF
:10062000486170BD0228FCD1002ACE60CB60086909
:1006300001D0204300E0A043086170BD1649174A6D
:10064000CA60174ACA60174A8A6170471249134A3A
:10065000CA60134ACA60134A8A6170470E4A0F4B38
:10066000D3600F4BD3600029116801D0014300E033
:10067000814311607047084A0146526800200A42CF
:1006800000D0012070470449044ACA60044ACA6085
:100690008A6882438A607047000402405A5A000008
:1006A000A5A500000100695A70B57549754C8842CE
:1006B00002D10122150604E0734988420BD10122C0
:1006C00055062946204600F095FB00222946204683
:1006D00000F090FB70BD6D49884202D10122950661
:1006E000EFE76B498842F5D10122D506E9E7644975
:1006F000002040318860644940318860634940315E
:1007000088606349403188607047F0B50022012756
:100710003B460C6893401C409C4232D1846C96004E
:100720000F25B540AC4384640C79012C04D0022C15
:1007300002D0002C0FD011E004689C4304600468D0
:100740001C43046044689C43446044688D79954030
:100750002C43446002E004689C430460C56B540071
:100760000326A640B543C563CD79A540C46B254398
:10077000C563046C9C430464036C4C79944023432C
:100780000364521C082AC3D3F0BDFF21016000217D
:100790000171012242718171C17170470246D268B4
:1007A00000200A4200D001207047C068C0B27047E4
:1007B000FF2201320029416B01D0114300E0914337
:1007C00041637047002A426B01D00A4300E08A432C
:1007D0004263704710220029816B01D0114300E071
:1007E000914381637047826B120912018263826BAD
:1007F0000A43826370470246926800200A4200D092
:10080000012070478068C0B27047C16270470163C1
:100810007047002A01D0C162704701637047816050
:10082000704782684A408260704710B5C36B4900C8
:1008300003248C40A343C363C36B8A401343C36345
:1008400010BD01238B40416C002A02D099434164C2
:1008500070471943FBE710B5836C0F249440920056
:10086000A34391401943816410BD10B54907C90ED7
:10087000836C8A400F248C40A3431343836410BDD0
:100880000010024000000240001402400018024024
:10089000001C02406D4910B588420AD16C4C0122FF
:1008A0000421204600F0A6FA00220421204600F090
:1008B000A1FA10BDF8B50D4604460968654A002046
:1008C000654F012691421BD8C800083005F0BDF9DC
:1008D00002460B460020394604F046FF00225F4BDB
:1008E00004F012FF00225E4B04F01BFF05F060F9DC
:1008F00080B2042800D204202188FE2211401CE08E
:10090000584A914217D8C800083005F09EF90246AF
:100910000B460020394604F027FF00224F4B04F01D
:10092000F3FE00224E4B04F0FCFE05F041F980B2CC
:10093000042800D20420218831432180A08221880C
:10094000A8882A89104308432080A888442803D116
:10095000E888698908432081F8BD3E490160442147
:1009600081800021C18001810121418170474022A5
:100970000029018801D0114300E0914301807047B4
:1009800020220029018A05D0012319430182018810
:10099000114304E0490849000182018811400180A7
:1009A000704720220029018801D0114300E09143C3
:1009B0000180704710220029018801D0114300E016
:1009C00091430180704704220029018801D011431E
:1009D00000E09143018070470289FE2349081A40D4
:1009E00049001143018170470029018902D0012289
:1009F000114301E049084900018170478180704737
:100A00008088C0B27047002A02D00122114301E061
:100A1000490849008180704708B540180090006877
:100A200008BD04220429018802D091430180704747
:100A30001143FBE708220029018801D0114300E09F
:100A40009143018070478089C0B27047000C00401C
:100A500000000240A086010060E376410000E03F14
:100A60000000F03F801A0600704701F0DAF900F04C
:100A70000CF801F0D6F900F008F800F006F800F0E4
:100A800004F87047704770477047BFF34F8F0449B1
:100A90000248C860BFF34F8F00BFFDE70400FA05AE
:100AA00000ED00E03048006870474368022293433D
:100AB0000A681A4304239A434B6813433022934332
:100AC0008A681A4340239A43CB6813438022934396
:100AD0000A6949691A4301235B029A431143416041
:100AE00070470029416802D00122114301E0490802
:100AF00049004160704708220029416801D0114334
:100B000000E0914341607047FF22013200294168B3
:100B100001D0114300E091434160704701464968AC
:100B20000020C90300D50120704708B50022012329
:100B30001B04009242681A409A42FBD0416108BDF2
:100B400008B5002201231B04009242681A409A4211
:100B5000FBD0816008BD0246D26800200A4200D066
:100B6000012070470161704700440040BD48816822
:100B70004909490181608168490D490581607047D3
:100B8000B94ABA4B03660A438262591E016670472E
:100B9000B54AB64B03660A430263591E01667047A5
:100BA0001143B24A0266B04A1143C162AF49491EBD
:100BB000016670471143AD4A0266AB4A1143416377
:100BC000AA49491E0166704718B50021052424036F
:100BD00001231B030091816A009A1940521C009264
:100BE000A24201D09942F6D0994201D1012018BD0C
:100BF000002018BD18B5002200929C4A02669A4A4D
:100C00008918C162402205242403C16A009B114057
:100C10005B1C0093A34202D04029F6D001E040299A
:100C200005D00021914A521E0266084618BD0121D6
:100C3000F8E718B5002200928C4A02668A4A8918A1
:100C400001630524240301231B03016B009A19404F
:100C5000521C0092A24201D09942F6D0994201D191
:100C6000012100E00021814A521E0266084618BD9B
:100C700018B5002100917D49016640230524240315
:100C8000416B009A1940521C0092A24202D04029A6
:100C9000F6D001E0402905D00021744A521E0266B8
:100CA000084618BD0121F8E710B54B684A699B0258
:100CB0001A430B688C68DB02640223431A43CB6837
:100CC00009691B021A4309010A4367490A43674934
:100CD00001664263491E016610BD644A026600292E
:100CE00001D0634900E0604941636049491E0166E3
:100CF00070475E4A02668163511E01667047C36B8E
:100D00005B0E5B06C363C36B09060B43C363C16B16
:100D10001143C1637047C36B012252069343C363FF
:100D20000029C16B01D0114300E09143C1637047BA
:100D300030B5036A446B4C4D9BB2A4B22B432C4399
:100D400001290BD0022910D004290ED0FF2501352E
:100D5000A94211D1002A0ED02C430DE0002A01D067
:100D6000012104E05B085B0006E0002A01D00B4390
:100D700002E08B4300E0AC433C49016603624463FC
:100D8000491E016630BD384A1143384A0266416245
:100D9000511E01667047026907231B029A430A43EA
:100DA00002617047026901231B03002901D01A4325
:100DB00000E09A43026170470269120A12020A4374
:100DC00002617047006A4007400F7047016070473A
:100DD00041607047002A826801D00A4300E08A43DC
:100DE00082607047002AC26801D00A4300E08A434B
:100DF000C26070471D4B0366002A426C01D00A4353
:100E000000E08A4342641949491E01667047174A47
:100E10000266002902D01449491C00E0124981648D
:100E20001249491E01667047104B10B55B1E1943ED
:100E30005C1C0466002A826901D00A4300E08A43F0
:100E40008261036610BD0246D26900200A4200D0CA
:100E500001207047044A0A43044901660264491E9E
:100E600001667047000002400000695A9966AA5561
:100E70000008695A10B51C4C012210212046FFF7CA
:100E8000B9FF002210212046FFF7B4FF10BD0A88E9
:100E90004B881A438B88C9880B431A4302607047FA
:100EA0000021018041808180C1807047402200295B
:100EB000016801D0114300E0914301607047C160B7
:100EC0007047C068C0B270470029416801D0002156
:100ED00001E0012211434160704702469268002000
:100EE0000A4200D0012070470000024010B55B4C60
:100EF000012280212046FFF77DFF0022802120462D
:100F0000FFF778FF10BD564A02650029016802D03C
:100F10000122114301E04908490001605049491E7E
:100F200001657047002904D041680021C943416030
:100F300070470168002101607047002904D04168B2
:100F4000490849004160704701680122114301606E
:100F50007047826812091201826082680A438260C7
:100F60007047826830239A43826082680A438260B5
:100F700070478268C0239A43826082680A43826015
:100F80007047826803231B029A43826082680A4387
:100F90008260704710B5C368490003248C40A343A6
:100FA000C360C3688A401343C36010BD10B50369B2
:100FB000890007248C40A343036103698A401343DB
:100FC000036110BD02690F231B049A430261026989
:100FD0000A43026170470269012109058A430261DF
:100FE00002690A43026170470169012212059143B7
:100FF0000161704710B54369890007248C40A34301
:10100000436143698A401343436110BD42690F2322
:101010001B049A43426142690A4342617047104A85
:10102000026582690F4B92B2D218920892000A436D
:1010300082610B49491E01657047094A0265826950
:10104000084B92B2D2181023002901D01A4300E0B5
:101050009A4382610249491E0165704700000240BF
:101060009966AA550000695A454910B5884202D0D0
:10107000444988420AD1444C012240212046FFF7CE
:10108000B9FE002240212046FFF7B4FE10BD30B566
:1010900002680523DB011A4018C94D6823438C6898
:1010A0002C4323430C682343CC68096923430B4337
:1010B0001343036030BD0021FF2201328161826051
:1010C0004160D10001604021C160082141611021CF
:1010D0000161704780220029016801D0114300E0BE
:1010E000914301607047012252020029016801D03A
:1010F000114300E0914301607047202200290168FC
:1011000001D0114300E09143016070470268FF2362
:1011100001339A43026002680A4302607047026822
:101120000123DB029A4302600268C9430A4302605A
:1011300070470268D208D200026002680A43026067
:10114000704700684007400F7047416081617047F9
:101150004068704781607047806870470246D26877
:1011600000200A4200D00120704702461269002088
:101170000A4200D001207047C907C90F416170477A
:1011800000180040001900400000024022490843B6
:101190002249C860704770B5C2780F2301240178D6
:1011A000002A1AD01D4AD568520D1540521B120A4A
:1011B0000425AE1AD34045788278B5401A402A43B8
:1011C000174B12018900C9180A600078C106C90EC0
:1011D0008C4040098000134906E0C806C00E8440D8
:1011E00048091049800080314018046070BD704784
:1011F0000A4A0029116901D0014300E081431161CD
:101200007047042208490428086902D09043086105
:1012100070471043FBE700000000FA0500ED00E016
:1012200000E400E000E100E000E000E0704730B5DD
:101230000268FD4DFD4B92B2A84201D0984203D105
:101240007024A2434C882243A84201D0984203D183
:10125000F74C1440CA88224302608A88C2620A8816
:101260008262A84201D0984201D1097A016301212A
:10127000416130BD30B5026AEE4B1A400262026A2B
:1012800093B24268846992B2A4B27025AC43A408B8
:101290000D88A40025430224A3430C891C434B88DA
:1012A0002343E14CA04202D0E04CA0420DD10824DF
:1012B000A3434C891C4304239C438B882343DC4C6D
:1012C00022408C891443CA89224342608561C988BF
:1012D0004163036230BD70B5026AD64B0F3B1A40C2
:1012E0000262026A95B24268836992B2D24C9BB2A2
:1012F00023400C782406240C1C4320239D430B8997
:101300001B051E0C4B882E431B051B0CC64D33437F
:10131000A84202D0C54DA84215D18025AB434D89C6
:101320002D052D0C1D4340239D438B881B051B0C55
:101330002B43C24D2A408D89AD042D0C1543CA891B
:101340009204120C2A4342608461C988816303625B
:1013500070BD30B5026AB74BFF3B1A400262026AA9
:1013600093B24268C46992B2A4B27025AC43A40897
:101370000D88A4002543B24C23400C7A2406240C8B
:101380001C438B781B061B0C2343A74CA04202D0A6
:10139000A64CA04215D1AB4C23408C7A2406240CD9
:1013A0001C43A94B1C400B791B061B0C2343A74C69
:1013B00022408C892405240C1443CA891205120C7E
:1013C00022434260C561C988C163036230BD30B544
:1013D000026A9F4B1A400262026A94B24268C36971
:1013E00092B2954D9BB22B400D782D062D0C1D43CE
:1013F000984B1C400B7A1B071B0C23438C7824074B
:10140000240C1C43884B984202D0884B984205D14B
:10141000914B1A408B899B051B0C1A434260C56196
:10142000C9880164046230BDC269844B1A40C2613C
:10143000C2690906090C0A43C2617047C2697D4B43
:101440000B3B1A40C261C2690A43C261704782699C
:101450007A4B1A40826182690906090C0A4382614B
:101460007047F0B5046A734D0F3D2C4004628469E7
:10147000A6B2046A794F1B073E401B0C3343120689
:10148000120C0D051A43684E2D0C1023A4B2B04265
:1014900002D0664EB04203D120218C432C4302E09F
:1014A000A025AC430C431C4382610462F0BD8269F9
:1014B000604B0B3B1A40826182690A43826170472C
:1014C00070B5046A5B4D2C4004628469A5B2046A5D
:1014D0001B05F3261B0CB54313432B43524D01222E
:1014E000A4B2A84202D0514DA84201D1022500E089
:1014F0000A25AC430C4314438361046270BDF8B504
:101500000C4605460888484E4988A2882389002849
:1015100022D0042828D008282ED0286A94464C4A85
:1015200010402862E86987B2286A0A07120C9646BA
:101530004A4A1B07174062461206120C17431B0C3F
:101540003B43B71480B2B54202D0384A95423DD1F0
:101550004049084071463BE02846FFF7B1FFE1886B
:101560002846FFF7A4FFF8BD2846FFF77AFFE18879
:101570002846FFF76CFFF8BD286A96462D4FFF3FBF
:1015800038402862E86987B2286A0A06120C944635
:10159000F32297431B051B0C724613433B43FF2763
:1015A000013780B2B54202D0204A954203D1244986
:1015B0000840614601E02A4A104008433843EB6185
:1015C0002862E1882846FFF739FFF8BD254A104018
:1015D00008433843EB612862E1882846FFF724FF7F
:1015E000F8BDF8B50C4649880026012507460029B4
:1015F00000D10226A288012A00D102252088238951
:101600000028384630D0FFF72CFFE1883846FFF736
:101610001EFF23892A4631463846FFF751FFE188ED
:101620003846FFF744FFF8BD00100040003C004082
:10163000FFFC0000FEFF0000FF8C0000FFF3000035
:10164000FFFD0000FFF70000FFFB0000FFCF0000E0
:10165000FFEF0000FFDF0000FFBF0000FF0C0000F5
:10166000FFF50000FF7D0000FFF72AFFE188384604
:10167000FFF71DFF23892A4631463846FFF7F1FE62
:10168000E1883846FFF7E3FECDE710B50A884B88BE
:10169000CC881A438B8823431A430B891A434B89FE
:1016A00089891A430A43426410BD0021C9438180DD
:1016B00000210180C18041800172704700210180BA
:1016C00041808180C180018141818181C1817047D8
:1016D00000210180418001228280C1800181704708
:1016E0000021018041808180C1800181418181810F
:1016F00070470029016802D00122114301E0F64A37
:101700001140016070470029416C03D00122D203CF
:10171000114301E04904490C41647047002AC26842
:1017200001D00A4302E0C94389B20A40C26070474F
:1017300041617047114381647047002AC26801D03B
:101740000A4302E0C94389B20A40C2607047816817
:10175000E14A921F1140816070478268702392B203
:101760009A430A438260704710B50446FFF7F5FFBD
:10177000A06807210843A06010BD70B516460D464D
:10178000044660290CD001223146FFF799FE294614
:101790002046FFF7E2FFA06807210843A06070BD64
:1017A00001223146FFF75DFEF1E710B584681B06A4
:1017B0001B0C1343E4B20B432343836010BD10B5ED
:1017C0000446FFF7F2FFA06880B2C108C9000720F5
:1017D0000143702081430143A16010BD10B5044650
:1017E000FFF7E3FFA068012189030843A06010BD53
:1017F0008162426170470268702392B29A430A4341
:101800000260704770B58468A5B28469066AA4B2A4
:10181000ED08ED000D43B149B6B20C40FF21023195
:101820000C4322218E431905090C11433143856075
:101830008461016270BD8269702392B29A430A4347
:10184000826170478269A64B92B209061A40090C60
:10185000114381617047C269702392B29A430A436F
:10186000C2617047C2699E4B92B209061A40090CC8
:101870001143C16170470029016802D080221143E1
:1018800002E0954A7F3A11400160704700294168A3
:1018900002D00422114302E08F4AD21E114041605F
:1018A00070470029416802D00822114302E08A4AA9
:1018B000D21F1140416070470029416802D00122C7
:1018C000114301E0844A1140416070478269082356
:1018D00092B29A430A43826170478269814B92B205
:1018E00009061A40090C114381617047C269082337
:1018F00092B29A430A43C2617047C269794B92B26D
:1019000009061A40090C1143C1617047826904231A
:1019100092B29A430A438261704782696F4B92B2D6
:10192000FD3B09061A40090C114381617047C269E9
:10193000042392B29A430A43C2617047C269674B5B
:1019400092B2FD3B09061A40090C1143C161704770
:101950008269802392B29A430A4382617047826906
:1019600009065204520C090C114381617047C26987
:10197000802392B29A430A43C2617047C269090642
:101980005204520C090C1143C1617047026A0223D0
:1019900092B29A430A4302627047026A082392B2E3
:1019A0009A430A4302627047026A202392B20905F1
:1019B0009A43090C114301627047026A802392B274
:1019C00009059A43090C114301627047026A464BAC
:1019D00092B209061A40090C114301627047026A6B
:1019E000404B92B209061A40090C1143016270473C
:1019F000026A3E4B92B209071A40090C1143016278
:101A0000704710B50123046A8B40DB439BB21C4036
:101A10000462036A8A4091B20B43036210BD10B5A1
:101A20000423046A8B40DB439BB21C400462036ABC
:101A30008A4091B20B43036210BD30B503461833A0
:101A40000124056A8C40E443A4B2254005620029C4
:101A500010D008290ED0091F0804400CC0180168D6
:101A600007231B039943016001681206120C1143FE
:101A7000016030BD4808C0180168702399430160B7
:101A80000168F4E70029016802D00222114302E054
:101A9000114A521E1140016070470029016802D0AE
:101AA0000422114302E00C4AD21E1140016070472B
:101AB0000029416802D08022114302E0064A7F3AA1
:101AC0001140416070470268034BDB1F1A400260FF
:101AD00002680A4302607047FEFF0000FCFC000041
:101AE000FF8F0000FFF70000FFFD0000FFDF000098
:101AF00042682D4B1A40426042680A434260704778
:101B00008268294B69331A40826082680A43826086
:101B100070478268244B103B1A40826082680A43F7
:101B20008260704741627047C1627047416370478D
:101B300081637047C16370470164704702681B4B43
:101B40001A40026002680A4302607047406B80B22C
:101B50007047806B80B27047C06B80B27047006C7A
:101B600080B27047406A80B27047806A80B2704726
:101B70000246126900200A4200D001207047C94382
:101B800089B201617047024613690020D2680B4098
:101B90000A40002B02D0002A00D001207047C94320
:101BA00089B20161704700008FFF0000FFFC000058
:101BB00030B589B0044600211020059040200490E3
:101BC000244807910691039102910191844223D107
:101BD00001A92046FFF75BFA1F4D20462946FFF773
:101BE000B4FA29462046FFF7B0FA07200002FFF7B3
:101BF000CDFA0E20694608700320487088700120D5
:101C0000C8706846FFF7C7FA684600F02BF8012154
:101C10002046FFF772FA0AE005200591079001A916
:101C20002046FFF734FA00212046FFF78EFA012103
:101C30002046FFF74FFA09B030BD10B50121054825
:101C4000FFF79AFA0549C888401CC880044901205A
:101C5000086010BD0018004040A2FFFF8401002072
:101C60000000002010B50278407894079308E20E37
:101C70000021921D002802D0401E90400146032002
:101C80009040C24358489B001818036813400360F3
:101C900002680A43026010BDFEB503267602304694
:101CA000FFF774FA00256846057201244472C47275
:101CB00002A8FFF770FA02A8FFF7D4FF3046FFF73B
:101CC00065FA684604724472C47202A8FFF763FAA8
:101CD0003046FFF75BFA0221684601724472C47213
:101CE00002A8FFF758FA05200002FFF74FFA032178
:101CF000684601724472C47202A8FFF74CFA684643
:101D000004708570C57005714470082269463748B3
:101D1000FEF782FBFEBD10B5044600F03EFD606993
:101D2000C00705D0A069C00702D0E069012107E023
:101D30006069800707D5A069800704D5E0690221A2
:101D40000843E06110BD6069400711D5A0694007F4
:101D50000ED5E06904210843E06125488442F1D1B1
:101D6000244800780028EDD023491E20088010BDAB
:101D7000606900070CD5A069000709D5E069082152
:101D80000843E06119488442F1D100F02CFB10BDFA
:101D90006069C00605D5A069C00602D5E0691021BA
:101DA000CEE76069800605D5A069800602D5E069A6
:101DB0002021C5E76069400605D5A069400602D527
:101DC000E0694021BCE760690006E0D5A069000633
:101DD000DDD5E0698021B3E704489CE707489AE72E
:101DE000074898E7024896E700E400E00010024048
:101DF000001C0240F00000200201002000140240FC
:101E000000180240006870470088704700787047EB
:101E100010B50320FEF737FC7F204002FEF73AFBA7
:101E200010BD70B507250226284603F06BF90400A3
:101E30000DD0224920480870000A48702A46002028
:101E400002F0C2FF204603F08EF9304670BD01203B
:101E500070BDF8B5074607250226284603F052F95B
:101E600004000BD001462A46002003F003F8208826
:101E70001149884204D0204603F075F90120F8BDCD
:101E80002A462146384603F094F9204603F06BF9C0
:101E90003046F8BD10B50948FFF7DBFF022809D12D
:101EA000064841780278080203491043884201D16C
:101EB000002010BD012010BD3A5A0000240100206E
:101EC00010B500215E48FEF70CFE5E480169042251
:101ED0001143016130BF10BD10B500215848FEF715
:101EE00000FE5848016904229143016130BF10BDD2
:101EF00010B5554C00280ED0544B012812D00228A2
:101F00001BD0032818D1052206215148FEF7ADFC4D
:101F1000032109020DE0012204214E48FEF7A5FC31
:101F2000002106E0052203211846FEF79EFCFF2152
:101F300001312046FFF725F810BD0522062118467D
:101F4000FEF793FC01214902F3E7F0B589B00226C0
:101F500030200024059003963002394F08900494F5
:101F60000694079403A93846FEF79FFD01256846AD
:101F7000057184710096C471457169463348FEF756
:101F8000C4FB05200002FFF701F910216846017229
:101F900045728572C57202A8FFF7FDF82E4C3846CF
:101FA0002146FEF7CDFD21463846FEF7BEFD012154
:101FB0003846FEF7A9FD01213846FEF792FD09B02B
:101FC000F0BD70B501211E48FEF7CCFD234C2088E2
:101FD000401C20806088401C60802089401C20813B
:101FE00020890A2103F026F90125002900D1A572D4
:101FF0002089142103F01EF9002900D1E5722089FF
:10200000642103F017F9002900D125732089C82124
:1020100003F010F9002902D1657300202081608847
:1020200019218901884208D3BFF34F8F05490C4815
:10203000C860BFF34F8F00BFFDE70A48057070BD51
:102040000044004000ED00E0001C0040001C024085
:1020500000180240001402403FFF000084010020ED
:102060000400FA0504000020F8B5354E07460122A9
:10207000324D002411463046FEF75AFE31483B00EF
:1020800004F01DFA050406080A0C0D00048806E099
:10209000448804E0848802E0C48800E004892A4976
:1020A0002005000D0543264840300162B562491EF7
:1020B0000162F8BD70B5224C0646204D0122042174
:1020C0002046FEF735FE002E11D01E481430FFF7D3
:1020D0009BFEC005C00D054319481B4940300162F5
:1020E0002563491E0162206BC004FCD570BD1548F4
:1020F0001030ECE71149144A0143114840300262A4
:102100000F4A51621049491E0162704710B5002004
:10211000FFF7AAFF0120FFF7CDFF09480A49403029
:10212000016207490A6A054B85331A430A62064968
:10213000491E01620120FFF7DDFF10BD0000695A52
:1021400000000240A00000189966AA5500204D49E1
:10215000C0438860C860FFF7D9FF4B4F01243C7033
:10216000FFF7F3FE01F095FA00F098FA474D688802
:102170002828FCD300266E8001F082FA00F043FF8D
:10218000FFF78AFD4248FFF713FD4248FFF710FDB5
:102190004249414808804249404802F0DFFE01F0D0
:1021A00049FF002001F0B0FF002001F0C1FF00F066
:1021B000EBFA6E8068881428FCD3344846803E7061
:1021C00000F04EFD3749086037490860FFF762FEAE
:1021D000364D6879032801D000F015FF34483549A1
:1021E0000078354F002804D12F48344A00689042C7
:1021F00020DB3E700C70E9783148002909D080213D
:10220000FEF703FB08212F48FEF7C8FA002804D088
:1022100006E08021FEF7FBFAF4E72B480521017068
:10222000224800F006FF22480078002804D004204D
:10223000A87101E03C700E702448047024480670B8
:102240003878002801D001F0E6F922481E4E0470CB
:102250000E4C387800280BD100F0BBF800F002FAE1
:102260003078002804D0A878042801D001F0F7F8CD
:1022700060880028EDD06088401E608001F072F810
:10228000E7E7000000000240FD000020840100207C
:102290000018004000190040AF0400009401002025
:1022A000001000400801002014010020240100203B
:1022B000E8000020FE000020F0000020CDCC4C40C3
:1022C00000180240001002400B000020FA0000201D
:1022D000FC000020EB000020EE4903788A789A4346
:1022E0008A70C268002111804068017889088900DD
:1022F00001707047E849098801221204511AC26826
:1023000011800178E3488278114381707047E14A77
:1023100001789378194210D00169C968838A1942FB
:102320000BD041680978CB0706D0890704D4017F18
:10233000002901D1017AD170CEE7704770B40169EC
:10234000C968828A11421ED1D24C0178A27811420A
:102350002AD0C1680B88002B26D04168CE4D0A7860
:10236000D60712D092070ED42A889A18438B92B2BD
:102370009A4208D9427AE2700A7802231A430A7014
:10238000C0680021018070BC70472D885B19058BE7
:102390009BB2AB42F7D901231A430A70017F00298F
:1023A000F1D0007AE070EEE770BCA3E7B949943150
:1023B00048680278920892000270C968002008807C
:1023C000704741680978890702D5B249007AC87018
:1023D0007047B04800B59430FFF799FFAD4894308E
:1023E000FFF7ACFF00BDAB48943083E7C36A00221F
:1023F0001A80836A00291A80036A1A80436A1A8045
:1024000043691A7083681A7043681A7003691A70F6
:1024100083691A70C3681A70C3691A7003D0416C5B
:102420000A80006C02707047F0B50446C369226BE5
:102430001E780120A18E984DD268002E0AD00A4243
:10244000A16825D0097800292BD0E1680A78002AF4
:1024500019D026E00A4207D11870E988226AC943D8
:10246000491C1180A1680870A16BC968A28F114234
:1024700008D1E1690870E988E26AC943491C118002
:1024800061690870F0BD0870E988626AC94306E0B6
:102490000A78002A05D10870E988226AC943491CD4
:1024A0001180A16BC968A28F114261690BD00978B4
:1024B000002911D0A1690A78002A0DD10870E88896
:1024C000A16AC04306E00A78002A05D10870E888AE
:1024D000E16AC043401C0880A16BCA68A08F024219
:1024E0007ED0226BD268A38E1A4279D062691278AC
:1024F000002A75D0A2681278002A71D0A2691278D9
:10250000002A6DD0E2681278002A69D0606AE988F2
:102510000088401880B20128B4D9A06AE9880088F0
:10252000401880B20128ADD9206AE9880088411896
:1025300089B2052906D8E16AEA880988891889B22A
:1025400005295FD9E988EB8841188AB2E16A0988D0
:102550008027CB189BB24F4E9A4224D900212046A7
:10256000FFF744FF2078F070606C018800290ED0DE
:10257000226CF37812785206520E9A4207D12A88BA
:10258000891889B20A2902D2F1783943F1702A8870
:1025900001210904891A0180F078216C0870707893
:1025A000401C7070F0BDEA888918EA8889B28018EA
:1025B00080B2814226D900212046FFF717FF6078BC
:1025C000F070606C0188002910D0226CF3781278CA
:1025D0005206520E9A4209D12A88891889B200E01F
:1025E00015E00A2902D2F1783943F1702A880121D5
:1025F0000904891A0180F078216C08703078401C39
:102600003070F0BD01212046FFF7F0FEF0BDC96833
:102610000142FBD0206BC068A18E0842F6D0E06872
:10262000007800280ED06069007800280AD1606A1E
:10263000E9880088401880B2012803D9012120468A
:10264000FFF7D4FEA06900780028DFD0A0680078EA
:102650000028DBD1A06AE9880088401880B20128F0
:10266000D0D8F0BD0B4800B5001DFFF7DDFE0948CE
:102670004C30FFF7D9FE00BD06484C30C0690078E9
:10268000002805D10348001DC0690078002800D04B
:10269000012070470800002084010020FEB50025BD
:1026A00068460571012444718471C4710826694625
:1026B000F7480096FEF729F868460096F54FC47172
:1026C00069463846FEF721F81020009069463846E2
:1026D000FEF71BF82020009069463846FEF715F8F3
:1026E0004020009069463846FEF70FF80221684600
:1026F000C1716946E8480096FEF707F8684604711C
:102700008571802000906846C57169463846FDF79E
:10271000FCFF80213846FEF77AF868460471847120
:10272000302000906846DD4CC57169462046FDF7B3
:10273000ECFF10212046FEF768F820212046FEF726
:1027400064F8D34840308168D54A11408160D3484D
:1027500040308168FF221204914381608168D24336
:1027600011438160CB4840308168CE4A114081607E
:10277000C94840308168CC4A114081608168FF229D
:10278000120211438160FEBDC848017A002901D0C0
:10279000032100E0C6494183704710B50121C548B7
:1027A000FEF79FF9FFF7F0FF10BDC0480021C1738D
:1027B0008173704770B5BD4C0120207201F00BFA97
:1027C0000025A57501F074FB02F090FC8021B14852
:1027D000FEF71DF8FFF7EAFDE573E5722575E57173
:1027E000A573FFF76DFB70BD7047B049487B0028AB
:1027F00001D0401E4873704710B5AC49C87C002812
:1028000006D0401E0006000EC87401D1FFF709FB78
:1028100010BD70B5A54C207A002803D1FFF7ECFF5E
:10282000FFF7E3FF08219A48FDF7B8FF002802D020
:102830002078002801D0FFF7A7FF207A002804D1D4
:10284000A07D012801D1FFF79FFF608B00250028A4
:1028500018D0401E0004000C608313D193483C3014
:102860008570207A00280BD0E07B002803D0FFF78A
:102870009CFF01F0B0F9FFF799FDFFF721FB01E0A4
:10288000FFF798FF207A00280ED0A07B03280BD1F9
:10289000E07B002808D0401E0006000EE07303D144
:1028A000A573E57101F097F970BD704710B57F48C9
:1028B0008178012904D100218170407801F08FF9DD
:1028C00010BD10B503F0C1F97B4A7C4B02F04CFF00
:1028D00003F06EF94B2180B20901884200D9084605
:1028E00010BD10B57649487802076ED5F722104022
:1028F0004870488903F0A9F90022724B03F0A8F947
:102900000B22D24303F0C8FA02F044FD6E4988421C
:1029100001DB042010BD6D49884201DB092010BD98
:102920006B49884201DD0E2010BD6A49884201DDF5
:10293000132010BD6849884201DD162010BD67498B
:10294000884201DB182010BD6549884201DD1B204B
:1029500010BD6449884201DB1D2010BD62498842D8
:1029600001DB202010BD6149884201DB222010BD1F
:102970005F49884201DD252010BD5E49884201DDA6
:10298000272010BD5C49884201DD2A2010BD5B492B
:10299000884201DB2C2010BD5949884201DB2F20E1
:1029A00010BD5849884201DD312010BD564988428A
:1029B00001DB342010BD5549884201DD362010BDB1
:1029C0005349884202DD392010BD56E05149884202
:1029D00001DD3B20F8E75049884201DD3E20F3E766
:1029E0004E49884201DD4020EEE74D49884201DB37
:1029F0004320E9E74B49884201DB4520E4E74A49A7
:102A0000884201DB4820DFE74849884201DB4A2051
:102A1000DAE74749884201DB4D20D5E7454988423E
:102A200001DB4F20D0E74449884201DB5220CBE74D
:102A30004249884201DB5420C6E74149884201DD12
:102A40005720C1E73F49884201DB5920BCE73E4996
:102A5000884201DD5C20B7E73C49884201DB5E200B
:102A6000B2E73B49884201DD6120ADE73949884240
:102A700001DB6320A8E76820A6E70C48807AA3E77B
:102A800010B50A48007EC0079ED100F0B7FF9BE753
:102A90000010024000180240001C024000140240D6
:102AA0000F00FFFFFF0F00F00F0000F0E800002014
:102AB000E02E0000004400409A9999999999E93FC5
:102AC000F001002000000440F4FD1440C1CA114090
:102AD000B6F30D40AE470940022B07406DE70340B7
:102AE00010580140D122FB3F9CC40040CDCCEC3FAC
:102AF0002B87E63F560EDD3F6666D63F7F6ACC3FAA
:102B00004260C53F83C0BA3F46B6B33F8716A93F70
:102B10000E2DA23F14AE973F60E5903FB4C8863FAC
:102B20004E62803FF2D26D3F6F12633FC520503F2F
:102B30004260453F7D3F353FA8C62B3F1B2F1D3FC1
:102B40006ABC143F9EEF073F1283003FFA7EEA3EC5
:102B50002DB2DD3E713DCA3E10B57F21FE48C9054C
:102B60004163002141718172407801F038F82BE710
:102B700010B5F94901200872FFF7EEFF01F02AF8BD
:102B8000FFF718FE20E770B5FFF7ABFEF249887239
:102B90008A7D012A0CD100280AD00126552808D3A5
:102BA000002048717F20C00548634E72FFF7E0FFA8
:102BB00070BD4B2802D34A79002A07D03C28F7D8A9
:102BC00048790028F4D0FFF7C7FF70BDE24C4E7182
:102BD0003C34E578284603F038F8E04AE04B03F04F
:102BE00037F802F0E5FF0006000EE07000D1E67055
:102BF000E57070BD10B500F0FFFEFFF741FF00F07B
:102C0000F3FFD548C17A002901D001214174DBE6E8
:102C100010B5D4494878C20620D5EF22104048703C
:102C2000888903F012F8D04AD04B03F011F80B2238
:102C3000D24303F031F902F0ADFBCD4903F092FC31
:102C4000CC4903F083F901218907884201DCCA4895
:102C5000BAE60121C94303F071FAB5E60020B3E6F4
:102C600010B500F0C9FEC54CFFF7D2FF4100090EB8
:102C700002D161881429F7D300216180FF22D20597
:102C8000D04203D3B44A0123137051729CE610B5AD
:102C9000B14ABB4C5378A04206DB0420002901D185
:102CA000042B00D350708FE6B64CA04205DB032006
:102CB0000029F7D1032BF5D286E6B34CA04205DDFF
:102CC00002200029EED1022BECD27DE6AF4CA042CF
:102CD00005DD01200029E5D1002BE3D174E60020B9
:102CE000E0E7FEB507469C480025847D386803F080
:102CF00003F900910190012C72D1A54800780028B9
:102D00006ED1954894493C3040798C6B012836D877
:102D10002088009E019D02F098FF9E4A9E4B02F083
:102D200097FF2A46334602F01FFD02460B4600205D
:102D3000014602F0E9FC02F02DFB02906088009E43
:102D4000019D02F082FF954A954B02F081FF2A46D1
:102D5000334602F009FD05460E46029803F0CCF812
:102D600033462A4602F0D0FC02F014FB0290A08801
:102D7000009E019D02F069FF8A4A8B4B1EE00328EA
:102D80002ED8208A009E019D02F05FFF0022874B13
:102D900002F05EFF2A46334602F0E6FC02460B468E
:102DA0000020014602F0B0FC02F0F4FA0290608AC2
:102DB000009E019D02F049FF00227C4B02F048FF7B
:102DC0002A46334602F0D0FC04460D46029803F032
:102DD00093F822462B4602F097FC02F0DBFA0546F8
:102DE0005D4C6079002809D0284603F085F85B4ADD
:102DF0005B4B02F02DFF02F0CDFA0546284603F0AA
:102E00007BF86B4A6B4B02F023FF009B019A02F0A8
:102E10007BFC02F0BFFA3860A062E062FEBD60E7B2
:102E200031B54D4C607D617B084316D12078002878
:102E300002D0042060700CE06846FFF752FF0021CA
:102E40000098FFF724FF5C490098884201DA0120CE
:102E50006072414960783C31887138BDF1B54C48A9
:102E6000564D007800243C4900281CD008790022E7
:102E7000401CC0B208710A2813D9404F084602719D
:102E8000283FA600B959284603F0C4FB00D2BD591B
:102E9000641C0A2CF5DB00982F490560012088711D
:102EA000F8BD8A71F8BD0120F9E770B52A4CE07AC7
:102EB000002833D1FFF7ACFEFF21C905002501260C
:102EC000C84202D32670657204E04100090E25D085
:102ED000606225702048A6712430FFF7BFFF217C77
:102EE000264B8A00283B491C606AC9B2985021745D
:102EF0000A2900D32574A17900290FD02062A0628D
:102F0000E062E0616178042901D904216170CDB2E9
:102F1000FFF786FF6078A84200D0A67070BD0E490A
:102F200028204873704770B5144C383C207800282E
:102F300068D06088401C80B260801F2858D203F09F
:102F4000F9F8A16803F00EFB264605467436308971
:102F500003F0F0F8294633E0E80000209A999999A7
:102F60009999E93FF00100203333333333330B4079
:102F70000060834400004C42000080BF84010020B8
:102F80009A99794000007040666666403D0A574055
:102F90004A010020EC51B81E85EB05408FC2F52890
:102FA0005C8F084048E17A14AE4707400000244097
:102FB0007B14AE47E17AA43FCDCC4C400000A0404A
:102FC00003F08AFA03F072F880B201F0B1F8608879
:102FD00003F0B0F8616803F0C5FA0446F08803F026
:102FE000A9F8214603F078FA03F060F880B207E010
:102FF000002020706080FE4C208901F099F8E08864
:1030000001F082F870BDFA49FA4822390880FA487E
:10301000002181700522C270032242712C220271AC
:1030200006223C384270C17281717F21C90501635B
:103030007047F8B50546C078002803D18021EF48D5
:10304000FDF7E3FBEA4C6A3C217800291CD0E849F3
:10305000284601F08CFA00206080E54D2646603657
:1030600028893189401A03F05DF8E54F394602F0AE
:103070006DFFA060E888F188401A03F053F83946E4
:1030800002F064FF6060F8BD284601F013FAF8BD55
:10309000F8B5D94A9078042834D116460836718894
:1030A0003046007800240A25002904D0491E09046E
:1030B000090C71800AD0D34F030003F000FA0BEA29
:1030C0005EEAEAACEAEAB2EAEABAEA00030003F02E
:1030D000F6F90C2719494949071A191E21241949DB
:1030E00006203070C820708020211171C248FFF77F
:1030F000A0FF042000F034FE00F02AFEBE483C3859
:10310000807AF072F8BD072030707480F8BD092015
:10311000307000E03570022000E01E207080F8BDA5
:10312000B54D3C3DA86A00F01CFEB74AA86AB749F5
:10313000904201DD884215DBAD4D323D6C80884206
:1031400001DB5F2400E00224FF262D36688864211D
:1031500002F070F8A14201D2304600E0002000F0F9
:10316000D3FFF3E73078401C3070072000F0F8FD03
:10317000A14874803C38C472F8BD0821A448FDF70A
:103180000DFB002802D1B0790F2806D00821A048F5
:10319000FDF704FB002815D07BE005203070C82027
:1031A000708000F017FD032000F0DAFDF471347236
:1031B0007472B472B4719048FFF73BFF9548047085
:1031C0003C7066E0B079C043800706D080218B4810
:1031D000FDF71BFB642000F0ABFFB0790007800F08
:1031E000032806D080218548FDF70FFB642000F0FE
:1031F0008BFF7F483238448041883C29FCD344808F
:10320000002000F095FF002000F07EFF80217B4829
:10321000FDF7FDFA3DE088B2C8283AD100F098FDEC
:1032200037E008203070C8207080052000F098FD3D
:10323000C4E7F07A133815281BD300F0CBFC6E4995
:103240006B4D3C39F07A8872323D6C80272801D969
:103250005F2400E00224FF262D366888642101F0F7
:10326000E9FFA14201D2304600E0002000F060FFFB
:10327000F3E75F483238448094707480347174711D
:1032800034706448B47104703C70FFF7BCFEFFF703
:103290006FFC3878002800D16EE73078401E052892
:1032A000FAD8387863214006400E112814D170797D
:1032B000401CC0B27071632801D9717102E00A2804
:1032C00000D27571707A0A2802D2401C707203E035
:1032D000B07901221043B07138784006400E2128A1
:1032E0000FD17079421E72710A2800D87571B07AB8
:1032F0000A2802D2401CB07203E0B07902221043C7
:10330000B07138784006400E312814D13079401C15
:10331000C0B23071632801D9317102E00A2800D2AD
:103320003571F0790A2802D2401CF07103E0B079BF
:1033300004210843B07138784006400E41280FD16F
:103340003079411E31710A2800D83571307A0A2847
:1033500002D2401C307203E0B07908210843B071FA
:103360003C70F8BD70B5FFF7A0FD234D204E3C3DED
:10337000287A323E002814D1FFF7D5FD687A00285C
:1033800007D0287A002804D12878002801D1FFF737
:10339000EFFBFFF7F8FB3088C00701D1FFF778FE9D
:1033A000308800F02DFBB07A0024012802D1B472DD
:1033B000FFF72FFA287A002819D1F07A012800D1D6
:1033C000F472307B012802D13473FFF76FFA707BFF
:1033D00001280CD17473288B401C2883FFF70AFC4A
:1033E000A87C002803D0288B0A2800D9AC7470BDB3
:1033F000B6010020AF0400002401002000180240A4
:103400000000F0410B000020333353409A9989406B
:10341000001002400A00002010B503785418A3429F
:1034200008D3012B06D0591AC9B20170914200D8B5
:1034300002700DE4A342FBD90AE430B50478551AB2
:103440006D1CAC4209DA5A1C944203D8012901D000
:10345000591800E06118017030BD027030BDF8B538
:10346000B748007A002876D1B64C01212078B44EB6
:103470003C36B2787379512820D020460078374600
:103480004006400E0124B04D3F79112823D0AD4AAB
:1034900010784006400E212837D01078AB4F4306F5
:1034A00030465B0EC078312B45D013785B065B0E3F
:1034B000412B51D01078052872D082E0002A6ED1BD
:1034C000032B7ED00320707101F010FE9C483C302D
:1034D00000F086FB1BE0002A73D1032B17D1994A19
:1034E0001278120600D502214B2F05D020234B2243
:1034F000301DFFF7A2FF19E0934860380470298956
:1035000074300181E988C18001E0032B04D08C482C
:103510003C30FFF78EFD37E01078000600D5022121
:10352000202FE9D02022301DFFF776FF84483C3061
:1035300000F058FBE0E71278120600D50521642858
:103540003FD001236422F01CFFF777FF7C483C301A
:1035500000F047FB11E036E01278120600D5052195
:1035600001282ED00122F01CFFF756FF74483C3092
:1035700000F037FBF07800280BD080213846FDF7AB
:1035800044F970790328B7D96D48007A002818D01B
:1035900019E080213846FDF73AF9F2E700E010E043
:1035A0000420B0706648847501F0A0FD64480021D5
:1035B00044300170A0224280322202714271817136
:1035C000F8BDFFF7E1F85E480A21C1745D490020AB
:1035D0000870F8BD70B55A4C207A00280FD0022030
:1035E000A07300F0F9FA00252146A57503203C31AF
:1035F0008870084600F0F9FA25730120E070F6E6BD
:103600004F48817B022905D1017A002902D003218C
:103610008173C173704710B5FFF7AAFA09E710B5B7
:103620000A46904201D9032101E00321104601F02E
:1036300001FEFEE6884201D9401A00E0081A80B275
:10364000704710B504464248814201DA414815E00E
:10365000084602F051FC404A404B02F062F8142246
:103660003F4B02F0F5FA00223E4B02F065F83A4A71
:103670003D4B524202F0ECFA01F08CFE2060D8E69D
:103680003B483A4901623B4901603849491E0162A1
:1036900070473748354901623649491C0160334952
:1036A000491E016270471CB501206946087100205F
:1036B00088712021009169462F4CC8712046FDF782
:1036C00024F820212046FDF7A2F81CBD1CB50120DE
:1036D0006946087100208871022100916946274CD3
:1036E000C8712046FDF711F802212046FDF78FF83A
:1036F0001CBD1CB50120694608710020887110218D
:10370000009169461C4CC8712046FCF7FEFF102151
:103710002046FDF77CF81CBD1CB5012069460871E8
:1037200000208871402100916946134CC8712046E1
:10373000FCF7EBFF40212046FDF769F81CBD0000B7
:10374000E80000200B000020AC010020001802401F
:10375000CDCC84403333F33F9A999999999910408D
:10376000000034400000F03F6666FE3F9966AA55AF
:10377000400002400000695A001C02400010024054
:1037800070B50446EF4DC00704D00F22062128462D
:10379000FDF76BF8A00704D50F2203212846FDF79B
:1037A00064F8600704D50F2204212846FDF75DF870
:1037B000E54D200704D50F2202212846FDF755F8D4
:1037C000E00604D50F2203212846FDF74EF8A00697
:1037D00004D50F2205212846FDF747F8600604D5D9
:1037E0000F2206212846FDF740F870BD08B50320DA
:1037F0004002FDF7CBFC1820694608700120487094
:103800008870C8706846FDF7C6FC08BD01460020F8
:10381000CA0704D1401C4908C0B20828F8D3704731
:1038200000B5FFF7F3FF000200BD30B589B00446D4
:10383000FFF7F6FF83B200220F2000020490012060
:103840000192C0020392009206930292102C1ED0A5
:103850002021BE4D0591079005A92846FCF7BAFC2A
:1038600069462846FCF7C7FC2046FFF789FFFFF7AB
:10387000BDFF012221462846FCF775FD012128469F
:10388000FCF7D3FC2846FCF7F4FC09B030BD6021FE
:10389000DFE770B588B00446FFF7C2FFAC4B81B2DA
:1038A000187800280AD01C752046FFF7AFFF80006B
:1038B000C018A8498161002008B070BD187D0122A0
:1038C000A04318751C700020920200920F220390F2
:1038D000120201900290012504926020ED0205AED3
:1038E00023C69A4E05A93046FCF774FC694630465B
:1038F000FCF781FC2046FFF743FF21463046FCF7EA
:103900005EFD012221463046FCF7C9FCFFF76EFF41
:1039100001213046FCF72FFD29463046FCF74FFDCC
:10392000012229463046FCF71EFD01213046FCF7F6
:103930002CFD01213046FCF7BAFC00213046FCF793
:10394000B6FC01213046FCF770FC3046FCF791FCD8
:103950000120B1E770B588B00546012080020090D3
:1039600000210F2000020490012403910191029193
:103970006020E40205AA13C2744E05A93046FCF784
:1039800029FC69463046FCF736FC2846FFF7F8FE6E
:1039900029463046FCF713FD012229463046FCF744
:1039A0007EFCFFF723FF01213046FCF7E4FC2146B3
:1039B0003046FCF704FD012221463046FCF7D3FCDB
:1039C00001213046FCF7E1FC01213046FCF76FFC99
:1039D00000213046FCF76BFC01213046FCF725FC4A
:1039E0003046FCF746FC67E700B5FFF70FFF5A4982
:1039F00040004018408800BD10204AE7082048E7F2
:103A000030B4534B1A7D002A10D0002101242046E7
:103A10008840024206D08C408900C918E0B289690A
:103A200030BC0847491CC9B20829F0D330BC7047E4
:103A3000F8B5464F01213846FCF7BAFC012846D0BC
:103A400002213846FCF7B4FC012842D00421384654
:103A5000FCF7AEFC01283ED008213846FCF7A8FC54
:103A600001283AD010213846FCF7A2FC012836D0B4
:103A700020213846FCF79CFC012832D040213846F2
:103A8000FCF796FC01282ED080213846FCF790FCEC
:103A900001282AD0BC1521463846FCF789FC0128AC
:103AA00025D0640021463846FCF782FC01281ED050
:103AB000640021463846FCF77BFC012817D06400DF
:103AC00021463846FCF774FC012815D034E001216A
:103AD0000EE002210CE004210AE0082108E0102198
:103AE00006E0202104E0402102E0802100E02146A0
:103AF0003846FCF764FC1FE021463846FCF75FFCC3
:103B00003846FCF74CFC124D06092978002408467B
:103B1000E040C00703D1641CE4B2082CF7D30022B4
:103B20003846FCF7BCFB600040198680687829782D
:103B3000084368700020287000213846FCF775FBA8
:103B4000F8BD000000180240001C0240002C00409C
:103B5000F001002093380000CA0100207FB5BC208E
:103B600000900F20174D01240290019469462846C9
:103B7000FCF72EFC03204002FDF708FB1C206A46E0
:103B80001073002151739173D47303A8FDF703FBE5
:103B900001212846FCF73BFC01212846FCF726FCC6
:103BA00020212846FCF72BFC7FBD10B501210548DC
:103BB000FCF72DFC10BD10B50248FCF72AFCFEF7FF
:103BC000ECFD10BD0028004010B502216548FCF74F
:103BD0001CFE10BD704770477047704770477047B4
:103BE00070477047704770477047704710B5FFF7D0
:103BF000EBFF5C4C02212046FCF707FE0A2000F098
:103C0000BEF802212046FCF702FE0A2000F0B7F8B9
:103C100002212046FCF7F9FD0A2000F0B0F8AE20A2
:103C200001F0B3F8D52001F0B0F8802001F0ADF834
:103C3000A82001F0AAF83F2001F0A7F8D32001F056
:103C4000A4F8002001F0A1F8402001F09EF8AD207A
:103C500001F09BF88B2001F098F8A12001F095F875
:103C6000C82001F092F8DA2001F08FF8122001F05C
:103C70008CF8812001F089F8FF2001F086F8D92026
:103C800001F083F81F2001F080F8DB2001F07DF8BF
:103C9000402001F07AF8332001F077F8A62001F0F7
:103CA00074F8AF2001F071F82F480022428041885B
:103CB0001429FCD9428010BD10B50446B031C8B2F9
:103CC00001F063F82009103001F05FF82007000FC1
:103CD00001F05BF810BD7047F8B51E4617460C465C
:103CE0000546FFF7E9FF384601F058F8641CE1B2D9
:103CF0002846FFF7E1FF304601F050F8F8BD70B5F7
:103D000015460024FFF7D8FF002D284601F046F89D
:103D10002146641CE4B28329F6D370BD034601201A
:103D200000E058430A46491EC9B2002AF9D170473B
:103D300010B501240A2801D2204610BD0A2101F045
:103D400079FA641CE4B2F5E7704770477047704732
:103D50007047002001E0401CC0B29842FBD370477E
:103D600070477047001C024084010020002805D0E5
:103D70000022491E02D30270401CFAE77047E62376
:103D8000002207E0002101E0491C89B29942FBD3DF
:103D9000521C92B28242F5D37047000010B5014622
:103DA0005148FDF78CF8514B51491878002802D141
:103DB0004A88C82AFAD30020187010BDF8B54A4FB7
:103DC0000D46064601213846FDF77EF8002404E042
:103DD000305DFFF7E3FF641CE4B2AC42F8D300218E
:103DE0003846FDF771F8F8BD70477CB50124684688
:103DF000047100258571042000906846C4713D4E11
:103E0000447169463046FCF780FC68460471857150
:103E1000022000906846C471447169463046FCF740
:103E200074FC684601948571402000906846C47116
:103E30004471314C69462046FCF767FC032202219D
:103E40003046FCF712FD032204213046FCF70DFD3D
:103E5000032240212046FCF708FD00212248FDF7FF
:103E600033F87CBDFEB5FFF7C0FF10216846018026
:103E70000025458085800321C1801B4E6946304660
:103E8000FDF705F805200002FDF780F90A216846D4
:103E90000172012444728472C47202A8FDF77BF996
:103EA00001213046FDF702F8104884700570FEBD10
:103EB00010B500210C48FCF7F9FF10BD10B5012129
:103EC0000948FCF7F3FF10BD0749084801E0CA683C
:103ED00042708A681206FAD48278002A01D1FF2241
:103EE000CA60012101707047000800403B010020BA
:103EF0008401002000100240001C024010B5FE4862
:103F000081680F22120491438160816801221204AA
:103F10001143816081680F22120591438160FFF790
:103F2000C2FBF6490020087010BD10B5F248816848
:103F30000F2212069143816081680122120611430B
:103F40008160EF488168F02291438160FFF7BEFBFA
:103F5000EC490020087010BD10B5E74881680F22B9
:103F6000120591438160816801221205114381602D
:103F700081680F22120491438160FFF7BAFBDF4989
:103F80000120087010BD10B5DD488168F022914312
:103F900081608168102211438160D74881680F22B7
:103FA000120691438160FFF7B7FBD64901200870E4
:103FB00010BD10B5FFF7D0FFFFF7E5FF10BD1CB532
:103FC000002069460871C871CB4C6220403C0090CB
:103FD0002046FCF79AFB1021009169462046FCF729
:103FE00094FB04200090C64869464038FCF78DFBDE
:103FF0001CBD1CB50020694608710220C871BE4C6A
:104000006220403C00902046FCF77FFB102100918D
:1040100069462046FCF779FB04200090B8486946C1
:104020004038FCF772FB802000906946B648FCF7E8
:104030006CFB1CBD10B5FFF7BCFFB14881680F22B7
:10404000120291438160816882151143816010BD25
:1040500010B5AA49044640000978000E02D0002994
:1040600003D004E0012902D010BDFFF775FF7F21C6
:10407000C905204602F0FAFA0146A44A012000F0E0
:10408000E1FF10BD10B504464000010E9D480278C6
:1040900002D0002A03D004E0012A02D010BDFFF7AD
:1040A00072FF9A4A2146022000F0CCFF10BD10B5E5
:1040B000044643009148190E027802D1180E1043AD
:1040C00008D1012A01D1FFF719FF904A21460120AA
:1040D00000F0B8FF10BD70B504468A487F25ED0595
:1040E0000278AC4202D1002A04D070BD012A01D16D
:1040F000FFF71BFF2946204602F0B8FA0146834A23
:10410000022000F09FFF70BD10B504464B20000157
:10411000844200D30446204602F00CF87C4901F0AA
:1041200015FFFFF795FF7B48C4807B48048210BDD4
:1041300010B504464B200001844200D304462046BB
:1041400001F0F8FF724901F001FFFFF79BFF714892
:1041500004817148448210BD10B501466B4A0420A9
:1041600000F070FF10BD10B504464B2000018442E2
:1041700000D30446204601F0DDFF654901F0E6FE6C
:104180000146624A042000F05DFF624804806248F4
:10419000048010BD10B504464B200001844200D3BA
:1041A0000446204601F0C6FF594901F0CFFE014602
:1041B0007F20C00502F066FAFFF78DFF5548448066
:1041C0005548448010BD10B504464B200001844280
:1041D00000D30446204601F0ADFF4D4901F0B6FE84
:1041E000FFF765FF4B4884804B48848010BD10B5B5
:1041F0004A4900200870FFF79BFF0020FFF784FF6B
:1042000010BD70B50446FFF7F2FF208801F092FF61
:10421000434D296802F0A6F901F048FF80B2FFF78C
:10422000A2FF608801F086FF296802F09BF901F087
:104230003DFF80B2FFF7AEFFA08801F07BFF296849
:1042400002F090F901F032FF80B2FFF7BCFF70BDC1
:10425000F1B586B006980027C088009006983D46C4
:10426000C4683E4680682F4902F07CF901F01EFFC9
:1042700000062D49800D08580290FF2100986931F1
:10428000884201D3002000907F200299C00581421E
:1042900000DB02907F20C005844200DB04463C2105
:1042A000009800F0C7FF062100F0C4FF0846049103
:1042B00001F038FF0190009801F03CFF1B4901F02C
:1042C00045FE019902F0DEF903907F20C0050299B6
:1042D00002F0D8F9214602F045F9009002990398BE
:1042E00002F040F97F21C90502F0C0F9214602F031
:1042F00039F901907F201BE0401C02403901002069
:10430000401002403A010020001802400010004016
:1043100000009644AC010020DC0100204C0100208C
:104320001C0100200000C842046800000000704228
:10433000C005039902F0A6F9029902F013F97F2152
:10434000C90502F093F9214602F00CF904990B001B
:1043500002F0B5F80604070B0F121619274605469A
:1043600001E0019F2546009E0DE025460646009F80
:1043700009E0009F019D01E0009D0746264602E0FE
:10438000019E009D27462946384602F0A5F8314691
:1043900002F0A2F801460290384601F0D7FD0190E4
:1043A0002846029901F0D2FD00903046029901F0B2
:1043B000CDFD05469C48844217DA9C4E9C4F0198DF
:1043C00001F09AFD32463B4601F042FC00F0E2FF6C
:1043D00001907608974F284601F08EFD32463B4605
:1043E00001F036FC00F0D6FF05460099019802F076
:1043F00073F8294602F070F806462146019802F04B
:10440000B1F8314601F0A2FD07462146009802F0BE
:10441000A9F8314601F09AFD00902146284602F0A5
:10442000A1F8314601F092FD0446384601F064FDE2
:10443000814F824B3A4601F00BFC00F0ABFF054682
:10444000009801F059FD3A467C4B01F001FC00F068
:10445000A1FF0646204601F04FFD3A46774B01F09A
:10446000F7FB00F097FF764F04463946284602F0E6
:1044700079F801F01BFE069908803946204602F0C3
:1044800071F801F013FE069988803946304602F033
:1044900069F801F00BFE0699488007B0F0BD10B531
:1044A0000020FFF760FE0020FFF774FE0020FFF7FA
:1044B0008AFE10BDF8B504460079624A41006148A1
:1044C0005832081840388918008840390D8800286B
:1044D00022D0E17800291FD0183886B2084601F0B2
:1044E00029FE594902F03EF8584901F02FFD58497C
:1044F00001F0F2FF0746304601F01CFE394602F09B
:1045000031F8544901F0E8FF5349096802F02AF8EC
:1045100001F0CCFD80B200E00020FFF7F5FD002D9A
:1045200021D0E07800281ED0183DADB201F002FE87
:10453000454902F017F8454901F008FD444901F0EA
:10454000CBFF0446284601F0F5FD214602F00AF8AB
:10455000404901F0C1FF4049096802F003F801F049
:10456000A5FD80B200E00020FFF7E2FDF8BDFEB53A
:10457000054600790C4641003248324A0818583244
:10458000891840390E8840383349008809680091FD
:10459000002821D0E97800291ED0183880B2019077
:1045A000084601F0C7FD284901F0DCFF274901F06A
:1045B000CDFC274901F090FF0746019801F0BAFDB4
:1045C000394601F0CFFF234901F086FF009901F041
:1045D000C9FF01F06BFD00E00020E080002E1FD03D
:1045E000E87800281CD0183EB6B201F0A3FD1649A9
:1045F00001F0B8FF154901F0A9FC154901F06CFF65
:104600000546304601F096FD294601F0ABFF114901
:1046100001F062FF009901F0A5FF01F047FD00E005
:1046200000202081FEBD0000CDCCCC3ECDCCCCCC3A
:10463000CCCCEC3F6666F23F666666666666EE3F29
:1046400000009644546700000000C04200401C4631
:104650000AD7233D0000C0411C010020FD488268AC
:1046600020218A438260FB48403802688A43026006
:10467000C16B032292029143C1637047F54882687F
:1046800020218A438260F348403802688A430260EE
:1046900002680A43026042680A434260C16B032217
:1046A00092029143C1637047002800D0E6E7D5E746
:1046B00010B5E84C403C206820212046FCF7A5F8C6
:1046C00010212046FCF7A1F800BF00BF00BF00BFCB
:1046D00000BF20212046FCF79AF800BF00BF00BFB2
:1046E00000BF00BF10212046FCF791F810BD10B5A7
:1046F000FFF7C4FFD74C2021403C2046FCF787F849
:1047000000BF00BF00BF00BF00BF10212046FCF764
:104710007EF800BF00BF00BF00BF00BF10212046D1
:10472000FCF773F800BF00BF00BF00BF00BF20212F
:104730002046FCF76AF810BD10B50120FFF7B4FF62
:1047400000BF00BF00BF00BF00BF1021C14C403CF4
:104750002046FCF75CF800BF00BF00BF00BF00BFF1
:1047600020212046FCF753F800BF00BF00BF00BF68
:1047700000BF10212046FCF748F800BF00BF00BF73
:1047800000BF00BF10212046FCF741F810BD10B556
:104790000120FFF789FF00BF00BF00BF00BF00BFBF
:1047A0001021AC4C403C2046FCF731F800BF00BF64
:1047B00000BF00BF00BF20212046FCF726F800BF45
:1047C00000BF00BF00BF00BF10212046FCF71DF84E
:1047D00000BF00BF00BF00BF00BF10212046FCF794
:1047E00016F810BD70B59B4D0024403D2021284691
:1047F000FCF70BF800BF00BF00BF00BF00BF00BF49
:104800000020FFF751FF00BF00BF00BF00BF00BF87
:1048100010212846FBF7F9FF07E0641CE4B2FA2CEC
:1048200003D9FFF764FF012070BD20212846FBF764
:10483000B5FF0028F1D100BF00BF00BF00BF00BF1F
:1048400010212846FBF7E3FFFFF718FF002070BD9B
:1048500070B5804E0546403E10213046FBF7D7FF2D
:104860000024E80904D020213046FBF7CEFF03E006
:1048700020213046FBF7CBFF6806050E00BF00BFC6
:1048800000BF00BF00BF10213046FBF7BEFF00BFD6
:1048900000BF00BF00BF00BF00BF00BF00BF00BF20
:1048A00000BF00BF00BF00BF00BF00BF00BF00BF10
:1048B00000BF00BF00BF00BF10213046FBF7A7FFBD
:1048C000641CE4B2082CCCD370BDF8B507460024B4
:1048D0002046FFF7E9FE5F4E0025403E6006040ECD
:1048E00010213046FBF793FF00BF00BF00BF00BFA1
:1048F00000BF10213046FBF788FF00BF00BF00BF9C
:1049000000BF00BF20213046FBF748FF002801D040
:10491000641CE4B200BF00BF00BF00BF00BF102195
:104920003046FBF774FF6D1CEDB2082DD6D3002F77
:1049300003D0FFF701FF2046F8BDFFF728FFFAE795
:1049400070B50D46FFF7B4FE0024434E0DE0305D18
:10495000FFF77EFFFFF746FF002804D0FFF7C7FEF2
:104960000020C04370BD641CE4B2AC42EFD3FFF73B
:10497000BEFE002070BDFFB581B01D460F4600246D
:10498000FFF796FE344E08E0305DFFF761FFFFF75A
:1049900029FF00280CD1641CE4B2BC42F4D3FFF719
:1049A00087FEF05DFFF754FFFFF71CFF002805D0DE
:1049B000FFF79DFE0020C04305B0F0BD6F1E039CB5
:1049C00009E0BC4201D1002000E00120FFF77DFF9B
:1049D0003055641CE4B2AC42F3D3FFF788FE0020EC
:1049E000EAE71E4A50701C48D17001211530018041
:1049F0000021418070477FB5042069460881012469
:104A00004C811748009040208880A420154DC88014
:104A10002846FBF74FFFA002FCF7B8FB0C206946C5
:104A20000873022048738C73CC7303A8FCF7B3FBA4
:104A300003A8FDF717F901212846FBF798FF0A2183
:104A40000020FFF7CEFF05480321001DFFF78EF978
:104A50007FBD000040140240330200203E010020D0
:104A600010270000000C004030B5FC4BFC4C1970C6
:104A70009A700023E3800123521AA3800021153C81
:104A800002E0455C6554491C9142FADB002BFDD1E4
:104A900030BDF8B5F34CA189F14FF04B153F1878B4
:104AA000082919D0A189102916D0A0891A46117891
:104AB0000025491CEA4E9278C9B218280ED0A08968
:104AC00020280BD0A08928282AD0A089302827D0D8
:104AD000A089F82815D015E0395C03E019709142DF
:104AE00021D90FE02046FBF789FF00212046FBF784
:104AF00058FF00212046FBF766FF00212046FBF708
:104B000059FFF8BD00212046FBF74BFF002120464E
:104B1000FBF759FF01212046FBF74CFF3580F8BD1C
:104B200019709142EED2795CDCE7F8B5CD4EB189CF
:104B3000CB4DCA4C153D2078082938D0B78922467C
:104B400010789378401C5A1EC1B2182F31D0B78903
:104B50003046202F2DD08689282E3ED08789302FB1
:104B60003BD006468089102849D0B08938284BD0E0
:104B7000B08940284AD0B089482862D0B0895028EE
:104B8000304664D081890026B54F58296ED004463E
:104B90008089F82820D07E8000212046FBF701FF85
:104BA00000212046FBF70FFF0121204612E0295C7F
:104BB00003E0217091420FDC695C3046FBF71EFF79
:104BC00000213046FBF7EDFE00213046FBF7FBFEEF
:104BD00000213046FBF7EEFEF8BD217091420CDC5F
:104BE000695C0446FBF70AFF00212046FBF7D9FE6B
:104BF00000212046FBF7E7FEF8BD01211EE0E95C3D
:104C00003046FBF7FBFEE3E701210DE06078E17839
:104C100088420DD2491E884201D1002100E00121C5
:104C20003046FBF7D0FE00213046FBF7BAFECFE757
:104C300001213046FBF7BEFE00213046FBF7B1FEF6
:104C4000F8BD01213046FBF7ACFE0121C1E7FBF7BF
:104C5000D7FE014660782954401CC1B26170E078EB
:104C60008142EDD2401E8142D9D1D6E77D48FBF783
:104C7000C7FE61786854491C617001217948FBF7CF
:104C800099FE00217748FBF78CFE7E80F8BD70B559
:104C9000744D044600212846FBF783FE0021284678
:104CA000FBF788FE012C04D000212846FBF78BFE81
:104CB00070BD0121F9E710B5694C2088012801D1A8
:104CC000FFF7E7FE6088012801D1FFF72EFF654856
:104CD0000188090703D50188F7221140018010BD22
:104CE00010B55F4C7822153C2270007860707920F6
:104CF000C91CA070CBB2032202210020FFF73BFEAB
:104D0000401C05D06078102805D006280CD011E092
:104D10000020C04310BD52480A22A11D203800F0D7
:104D200048FA0120504904E0E078002802D04F49B9
:104D3000401E0870002010BD70B5494C0D4678210A
:104D4000153C217060707920A07004230322022199
:104D50000020FFF710FE401C03D0E07828700020F0
:104D600070BD0020C04370BD10B50C463C4B78218F
:104D7000153B19700146621C581C00F01AFAA41C5D
:104D8000E1B20020FFF7DCFD10BD34490022C91D4F
:104D90000A70487031480121C01DE5E72F494022C3
:104DA000C91D0A7048702D480121C01DDCE72C4A3E
:104DB00010B57823153A137050700878907003215D
:104DC0000020FFF7BDFD10BDF7B5144607460326CA
:104DD0002349301FA42282B015390A703AE02048D6
:104DE000224615384770801C039900F0E2F9102C18
:104DF00001D9102500E02546601BC4B2A81C009014
:104E00000098C1B20020FFF79BFD002810D0761E4D
:104E10003606360EF4D0164BDA8801210904891AB9
:104E200089B2DA88521892B2062AFAD30028E7D15A
:104E3000039949190391002C0ED07919CFB20C496E
:104E4000CB8801221204D21A92B2CB889B189BB253
:104E5000062BFAD3002CC2D1AEE500003E010020A3
:104E600048020020000C004038010020F200002021
:104E700084010020F7B50327A421214882B03E1FFA
:104E800014460170002A38D01D4802994170A521AE
:104E90008170102C01D9102500E02546601BC4B29A
:104EA000E81C009000980322C3B202210020FFF703
:104EB00062FD06001AD07F1E3F063F0EF2D0114859
:104EC000C28801210904891A89B2C288521892B293
:104ED000062AFAD3002EE5D1039840190390002C3E
:104EE0000BD002984019C0B20290CDE704492A467F
:104EF000C91C039800F05DF9EEE730465CE5000060
:104F000033020020840100207149704A0A62714A0C
:104F1000904202D148680A1504E06F4A904203D1DA
:104F20004868D214104348606848401C08627047C3
:104F30006749664A0A62674A904202D148680A1580
:104F400004E0654A904203D14868D2149043486017
:104F50005E48401C086270477047704770B588B063
:104F60000E46002469460C824C8200888882CC82DE
:104F70000C7604A93046FCF75AF96020694608808F
:104F8000012048800420888085010C814C818D811E
:104F90004B20CD810001C8803046FCF76BF908201A
:104FA00069464881CC81CC803046FCF794F969464B
:104FB0004C81CD81CC803046FCF7CBF96946CC8062
:104FC0003046FCF704FA01213046FCF792FB012140
:104FD0003046FCF798FB41488168FF22120191435B
:104FE00081608168FF221132114381603C488168F1
:104FF0003C4A114081608168112212051143816091
:1050000008B070BDF0B5324C304D00232562012749
:105010003C469C400D462540A5420BD1866C9C0029
:105020000F25A540AE438664012A03D1856CA740B5
:105030003D4385645B1C082BE9D324492448491E61
:105040000162F0BD70B5144602467F20C0050D46D2
:10505000814200DD05462448012A00880FD0022A3B
:1050600017D0042A1FD0082A08D1401C01F062F88A
:10507000294601F077FA01F019F8206470BD401C50
:1050800001F058F8294601F06DFA01F00FF860635D
:1050900070BD401C01F04EF8294601F063FA01F0A2
:1050A00005F8A06370BD401C01F044F8294601F0EA
:1050B00059FA00F0FBFFE06370BD7047704770471E
:1050C0007047704770477047704770479966AA5598
:1050D0004000024000100040003C004040100240F0
:1050E000401C0240FFFF00F09401002010B504486E
:1050F000002101704170FFF77AF810BD7047000081
:105100004A01002070B5064601F03AF805683046BD
:105110000B30C408E400B44201D8002070BD6868B8
:105120002A46002818D00168A14211D30B46214617
:1051300008318B4208D3436801194B6003681B1B7D
:105140000B605160046001E041685160001D70BD5A
:10515000024640680028E6D12146284601F018F8AA
:105160000028DCD170BD70B50446051F01F008F8B9
:105170000068002C1AD0446801E020466468002CC6
:1051800001D0AC42F9D301680A18AA4204D12A68B6
:1051900005468918016000E0456028684119A14270
:1051A00005D16168696021684018286070BD6C6035
:1051B00070BDF8B5042A2CD3830712D00B78491C94
:1051C0000370401C521E83070BD00B78491C0370E0
:1051D000401C521E830704D00B78491C0370401CEE
:1051E000521E8B079B0F05D0C91ADF002023DE1B40
:1051F00008C90AE0FAF7ACFFF8BD1D4608C9FD4032
:105200001C46B4402C4310C0121F042AF5D2F308E8
:10521000C91A521EF0D40B78491C0370401C521E50
:10522000EAD40B78491C0370401C012AE4D40978A5
:105230000170F8BD002203098B422CD3030A8B4274
:1052400011D300239C464EE003460B433CD400227E
:1052500043088B4231D303098B421CD3030A8B4290
:1052600001D394463FE0C3098B4201D3CB01C01A5E
:10527000524183098B4201D38B01C01A5241430929
:105280008B4201D34B01C01A524103098B4201D317
:105290000B01C01A5241C3088B4201D3CB00C01A84
:1052A000524183088B4201D38B00C01A52414308FC
:1052B0008B4201D34B00C01A5241411A00D2014621
:1052C0005241104670475DE0CA0F00D049420310BA
:1052D00000D34042534000229C4603098B422DD309
:1052E000030A8B4212D3FC22890112BA030A8B42B1
:1052F0000CD3890192118B4208D3890192118B4200
:1053000004D389013AD0921100E08909C3098B4284
:1053100001D3CB01C01A524183098B4201D38B01C7
:10532000C01A524143098B4201D34B01C01A52416A
:1053300003098B4201D30B01C01A5241C3088B42AF
:1053400001D3CB00C01A524183088B4201D38B009A
:10535000C01A5241D9D243088B4201D34B00C01A24
:105360005241411A00D20146634652415B10104639
:1053700001D34042002B00D54942704763465B1081
:1053800000D3404201B50020C046C04602BD704770
:10539000704770470246C80FC00781434B0030B5C5
:1053A0004B405B009B0D20D01923DB06C91801235D
:1053B0001B05994220DB0324A40704251346AB40B8
:1053C0000BD3002B04D1EB0613409B00E34204D423
:1053D00001246407002312195941FF231B05994238
:1053E0000BD2C9000143500F09E0CB0204D50143A1
:1053F0000803024305D0054830BDFF21C905084315
:1054000030BD084607210905884330BD0000C07F34
:10541000F0B50C46871A9C410D46861A9D4103D271
:10542000C01BA141D21963410D0D1F0DC94EEC1BCC
:10543000AE435CD07F057F0D0026002F51D02D0597
:10544000AC46A943DD020123ED0A1B051D432023C1
:105450001B1B24D41746E740381871412F46E740FC
:10546000CC199D402818314661410C0D27D161446B
:105470009A4013D50023401C594152000ED14008D8
:10548000400001224B005205D34207D305204007BC
:10549000C14201D5B04900E0B0493046F0BD6B00D3
:1054A000002A00D001229A181F23203C1B1B01D583
:1054B000002302E0E540281871410C0DD7D00124EB
:1054C00024050919C407CD0740084908E40F2843FB
:1054D0006144002CD5D00024401C61419A40D0D1B9
:1054E000CDE76A05520DD9D1C90FC907D5E79C4D43
:1054F0004E00002801D0012400E0002434195F0090
:10550000002A01D0012600E00026BE19954FAC42CA
:105510000CD8AE420AD8B44206D001256D05EC4243
:10552000BCD010461946F0BD9942FCD00020394647
:10553000F0BDF0B51FB40C460F46811A9F412546B9
:10554000861A9D4106D20125ED076F40401ABC41E5
:1055500052187B41210D1E0D8D1BAC467D4D8D4398
:105560007ED075056D0D7CD00D05AE46AC431B039A
:105570001B0B794D52429D41202366469B1B14D341
:105580001746F740381800260090744160462F46B1
:105590000741E41900989D402818664116D47146C9
:1055A00071189A4025D5012320E093182A466A41B4
:1055B0005200002B00D0521C1E23203E9B1B002BB0
:1055C00061DD3541EE1728186641E8D500187641AF
:1055D0005B1C9A4000D3401C4B05F3181524E34094
:1055E00010D3002B52D071467118D30FC01802D3BC
:1055F000491C05B0F0BD0123DB079A42F9D14008F0
:105600004000F6E701225205B21801D1002853D01C
:105610000123CC0ADB029943891E002A08D1020C1F
:1056200003D0020C0004103902E0024600202039A9
:105630000023550B05D112020823550B01D152014D
:105640000D23550C01D112011B1DD50C01D1920067
:105650009B1C150D01D152005B1C2025EE1A01E0A8
:105660002CE022E00546F54015439840CA1AE107B0
:1056700069181305C918002ABBDA03204007081867
:10568000C10FC9070FE071466118B2E7F107400882
:105690000843711071444A000CD001235B059A4203
:1056A000A7D2C90FC9070020A3E74905490D26D194
:1056B000002001E00028F4D100219AE7284D66007F
:1056C000002801D0012100E0002171185F00002AAC
:1056D00001D0012600E00026BE19224FA94210D8B1
:1056E000AE420ED8B14208D001256D05E94206D080
:1056F0001946A802414010467BE79C4201D0214652
:1057000077E70020394674E710B50C465C4005D5B4
:105710000124E4076340FFF70CFF10BDFFF778FE9C
:1057200010BD30B40C465C4004D50124E40763404E
:1057300030BC6DE630BCFCE670B50124E407614086
:105740000D465D4002D4FFF763FE70BD6340FFF776
:10575000F0FE70BDFF0700000000F0FF0000F07FCA
:105760000000E0FF0000F87FF0B5F94D0C091E09BC
:105770002C402E402F468BB0A7437DD0B543FCD0A4
:10578000002E7AD0002CFCD00D465D40ED0F254355
:10579000AC1BFF25AD0464190894C502440DC90271
:1057A0002143500DDC0204430120C00701430443A0
:1057B000D2020191200C110C00958C460104234665
:1057C0008B430A9161460904E24D8A430991010A1B
:1057D0007D4449198039097805464D4301266D18E5
:1057E000F605751B6943C90C640B891C4C4364188E
:1057F000B5012C1B250C2E04B4434C434D43210C06
:10580000691889090591009DE90701D00121C9079F
:1058100004912C4601996708CD072F434C08059D3C
:10582000E10B4D432D0C29466646754302950D4606
:1058300045432E46029D7D1BB44100950D465D43B8
:1058400001942C0C2F040D465543AE462D0C3D43C0
:10585000029503947546049C2D04641B049406D29F
:10586000029C039D641C002675410395029401ACC3
:1058700070CC009F7D1B01E03EE162E1B441090470
:105880000095079101940599A4086143090C0C4601
:105890004443650BE7040C4666467443A646640B16
:1058A0003C43039502947446049DE4042C1B049429
:1058B00006D2029C039D641C002675410395029448
:1058C00001AC70CC009F7D1BB44101940C465C433D
:1058D0000095650FE7000C465443A646640F3C4311
:1058E000039502947446049DE4002C1B049406D294
:1058F000029C039D641C002675410395029401AC33
:1059000070CC009F7D1BB441AE09AF06049DC90059
:10591000AD092F43049DA406AD060495079D3443AD
:1059200069180791059DE10B4D432D0C29466646EC
:10593000754302950D4645432E46029D7D1BB4419D
:1059400000950D465D4301942C0C2F040D465543E4
:10595000AE462D0C3D43029503947546049C2D04E0
:10596000641B049406D2029C039D641C00267541AE
:105970000395029401AC70CC009F7D1BB44101944F
:105980008C050694079C890A611800950791019C73
:105990000599A4086143090C0D464543680BEF04C3
:1059A0000D46644665436C0B3C43049FED047D1B30
:1059B000AC4602D20025641C6841009E019D371B45
:1059C00085410846584301950C46460FC50054438F
:1059D000600F28436546E4002C1B02D20025401CC2
:1059E0006E41019D3F1AB5412846BD0980062843F6
:1059F0008446A009BF064E020699A40676180743FE
:105A0000079D002068410A99079019430020099BCF
:105A100000906046FF1913434041E20F64003A438F
:105A2000A4460446D71A8C41A04203D90120009015
:105A300020463A46C70F941840416246D20F22438F
:105A4000644664000494009CBE466400D71AA446D1
:105A5000044602978C417746002F01D1A04204D919
:105A60006046401C8446029A2046C40FA6469418FD
:105A70004041049A0546D20F224364466400D31A7B
:105A80008D417146002901D1A84202D928461A4603
:105A9000641C10430122002800D01643610200203C
:105AA000079B891904465C410223002C02DB49183C
:105AB00013466441089DCE0A2D145D194B056705F8
:105AC000E10A2C050D1908993E43C9076940002BCE
:105AD00008D0934006D30022761C5141002B01D1FF
